{
  "contractName": "MessageBoard",
  "abi": [
    {
      "inputs": [
        {
          "internalType": "address",
          "name": "_semcoinAddress",
          "type": "address"
        }
      ],
      "stateMutability": "nonpayable",
      "type": "constructor"
    },
    {
      "anonymous": false,
      "inputs": [
        {
          "indexed": false,
          "internalType": "string",
          "name": "uuid",
          "type": "string"
        },
        {
          "indexed": false,
          "internalType": "uint256",
          "name": "date",
          "type": "uint256"
        },
        {
          "indexed": true,
          "internalType": "address",
          "name": "account",
          "type": "address"
        },
        {
          "indexed": false,
          "internalType": "uint256",
          "name": "tip",
          "type": "uint256"
        },
        {
          "indexed": false,
          "internalType": "string",
          "name": "message",
          "type": "string"
        }
      ],
      "name": "MessageCreated",
      "type": "event"
    },
    {
      "inputs": [
        {
          "internalType": "string",
          "name": "",
          "type": "string"
        }
      ],
      "name": "mappedMessages",
      "outputs": [
        {
          "internalType": "string",
          "name": "",
          "type": "string"
        }
      ],
      "stateMutability": "view",
      "type": "function",
      "constant": true
    },
    {
      "inputs": [],
      "name": "messageByteLimit",
      "outputs": [
        {
          "internalType": "uint256",
          "name": "",
          "type": "uint256"
        }
      ],
      "stateMutability": "view",
      "type": "function",
      "constant": true
    },
    {
      "inputs": [],
      "name": "semcoinAddress",
      "outputs": [
        {
          "internalType": "address",
          "name": "",
          "type": "address"
        }
      ],
      "stateMutability": "view",
      "type": "function",
      "constant": true
    },
    {
      "inputs": [],
      "name": "tokenCostPerByte",
      "outputs": [
        {
          "internalType": "uint256",
          "name": "",
          "type": "uint256"
        }
      ],
      "stateMutability": "view",
      "type": "function",
      "constant": true
    },
    {
      "inputs": [],
      "name": "isOwner",
      "outputs": [
        {
          "internalType": "bool",
          "name": "",
          "type": "bool"
        }
      ],
      "stateMutability": "view",
      "type": "function",
      "constant": true
    },
    {
      "inputs": [
        {
          "internalType": "string",
          "name": "uuid",
          "type": "string"
        }
      ],
      "name": "getMessageByUuid",
      "outputs": [
        {
          "internalType": "string",
          "name": "",
          "type": "string"
        }
      ],
      "stateMutability": "view",
      "type": "function",
      "constant": true
    },
    {
      "inputs": [
        {
          "internalType": "string",
          "name": "uuid",
          "type": "string"
        },
        {
          "internalType": "uint256",
          "name": "date",
          "type": "uint256"
        },
        {
          "internalType": "uint256",
          "name": "tip",
          "type": "uint256"
        },
        {
          "internalType": "string",
          "name": "message",
          "type": "string"
        }
      ],
      "name": "createMessage",
      "outputs": [],
      "stateMutability": "payable",
      "type": "function",
      "payable": true
    },
    {
      "inputs": [
        {
          "internalType": "uint256",
          "name": "timestamp",
          "type": "uint256"
        }
      ],
      "name": "isWithinOneHour",
      "outputs": [
        {
          "internalType": "bool",
          "name": "",
          "type": "bool"
        }
      ],
      "stateMutability": "view",
      "type": "function",
      "constant": true
    }
  ],
  "bytecode": "0x6080604052606460015560016002556040518060400160405280600281526020017f7c7c000000000000000000000000000000000000000000000000000000000000815250600390816200005491906200038a565b503480156200006257600080fd5b5060405162001e3438038062001e348339818101604052810190620000889190620004db565b33600460006101000a81548173ffffffffffffffffffffffffffffffffffffffff021916908373ffffffffffffffffffffffffffffffffffffffff160217905550806000806101000a81548173ffffffffffffffffffffffffffffffffffffffff021916908373ffffffffffffffffffffffffffffffffffffffff160217905550506200050d565b600081519050919050565b7f4e487b7100000000000000000000000000000000000000000000000000000000600052604160045260246000fd5b7f4e487b7100000000000000000000000000000000000000000000000000000000600052602260045260246000fd5b600060028204905060018216806200019257607f821691505b602082108103620001a857620001a76200014a565b5b50919050565b60008190508160005260206000209050919050565b60006020601f8301049050919050565b600082821b905092915050565b600060088302620002127fffffffffffffffffffffffffffffffffffffffffffffffffffffffffffffffff82620001d3565b6200021e8683620001d3565b95508019841693508086168417925050509392505050565b6000819050919050565b6000819050919050565b60006200026b620002656200025f8462000236565b62000240565b62000236565b9050919050565b6000819050919050565b62000287836200024a565b6200029f620002968262000272565b848454620001e0565b825550505050565b600090565b620002b6620002a7565b620002c38184846200027c565b505050565b5b81811015620002eb57620002df600082620002ac565b600181019050620002c9565b5050565b601f8211156200033a576200030481620001ae565b6200030f84620001c3565b810160208510156200031f578190505b620003376200032e85620001c3565b830182620002c8565b50505b505050565b600082821c905092915050565b60006200035f600019846008026200033f565b1980831691505092915050565b60006200037a83836200034c565b9150826002028217905092915050565b620003958262000110565b67ffffffffffffffff811115620003b157620003b06200011b565b5b620003bd825462000179565b620003ca828285620002ef565b600060209050601f831160018114620004025760008415620003ed578287015190505b620003f985826200036c565b86555062000469565b601f1984166200041286620001ae565b60005b828110156200043c5784890151825560018201915060208501945060208101905062000415565b868310156200045c578489015162000458601f8916826200034c565b8355505b6001600288020188555050505b505050505050565b600080fd5b600073ffffffffffffffffffffffffffffffffffffffff82169050919050565b6000620004a38262000476565b9050919050565b620004b58162000496565b8114620004c157600080fd5b50565b600081519050620004d581620004aa565b92915050565b600060208284031215620004f457620004f362000471565b5b60006200050484828501620004c4565b91505092915050565b611917806200051d6000396000f3fe60806040526004361061007b5760003560e01c80639037d0fa1161004e5780639037d0fa1461012f57806392bd97f81461015a578063f18f0c5514610185578063f762d5f0146101c25761007b565b80632637aa171461008057806344dfdcc8146100bd5780634f34882a146100d95780638f32d59b14610104575b600080fd5b34801561008c57600080fd5b506100a760048036038101906100a29190610cfa565b6101ff565b6040516100b49190610dc2565b60405180910390f35b6100d760048036038101906100d29190610e1a565b6102b5565b005b3480156100e557600080fd5b506100ee610520565b6040516100fb9190610ec8565b60405180910390f35b34801561011057600080fd5b50610119610526565b6040516101269190610efe565b60405180910390f35b34801561013b57600080fd5b5061014461057e565b6040516101519190610ec8565b60405180910390f35b34801561016657600080fd5b5061016f610584565b60405161017c9190610f5a565b60405180910390f35b34801561019157600080fd5b506101ac60048036038101906101a79190610cfa565b6105a8565b6040516101b99190610dc2565b60405180910390f35b3480156101ce57600080fd5b506101e960048036038101906101e49190610f75565b610658565b6040516101f69190610efe565b60405180910390f35b600581805160208101820180518482526020830160208501208183528095505050505050600091509050805461023490610fd1565b80601f016020809104026020016040519081016040528092919081815260200182805461026090610fd1565b80156102ad5780601f10610282576101008083540402835291602001916102ad565b820191906000526020600020905b81548152906001019060200180831161029057829003601f168201915b505050505081565b60006102c0826106c0565b9050600154811115610307576040517f08c379a00000000000000000000000000000000000000000000000000000000081526004016102fe90611074565b60405180910390fd5b61031084610658565b61034f576040517f08c379a0000000000000000000000000000000000000000000000000000000008152600401610346906110e0565b60405180910390fd5b60008360025483610360919061112f565b61036a9190611171565b90508034146103ae576040517f08c379a00000000000000000000000000000000000000000000000000000000081526004016103a59061123d565b60405180910390fd5b60008054906101000a900473ffffffffffffffffffffffffffffffffffffffff1673ffffffffffffffffffffffffffffffffffffffff166323b872dd3330846040518463ffffffff1660e01b815260040161040b9392919061125d565b6020604051808303816000875af115801561042a573d6000803e3d6000fd5b505050506040513d601f19601f8201168201806040525081019061044e91906112c0565b61048d576040517f08c379a00000000000000000000000000000000000000000000000000000000081526004016104849061135f565b60405180910390fd5b610499868686866106cb565b6005876040516104a991906113bb565b908152602001604051809103902090816104c3919061157e565b503373ffffffffffffffffffffffffffffffffffffffff167f864f0473466e0efee38c0dd86738641de40e84eab4fec8e1320d0beffb30dff9878787876040516105109493929190611650565b60405180910390a2505050505050565b60015481565b6000600460009054906101000a900473ffffffffffffffffffffffffffffffffffffffff1673ffffffffffffffffffffffffffffffffffffffff163373ffffffffffffffffffffffffffffffffffffffff1614905090565b60025481565b60008054906101000a900473ffffffffffffffffffffffffffffffffffffffff1681565b60606005826040516105ba91906113bb565b908152602001604051809103902080546105d390610fd1565b80601f01602080910402602001604051908101604052809291908181526020018280546105ff90610fd1565b801561064c5780601f106106215761010080835404028352916020019161064c565b820191906000526020600020905b81548152906001019060200180831161062f57829003601f168201915b50505050509050919050565b60008042905080831015801561067b5750610e10818461067891906116a3565b11155b1561068a5760019150506106bb565b80831080156106a65750610e1083826106a391906116a3565b11155b156106b55760019150506106bb565b60009150505b919050565b600081519050919050565b606060006106d833610735565b905060006106e586610a40565b905060006106f286610a40565b90508760038360038660038660038c6040516020016107199998979695949392919061175a565b6040516020818303038152906040529350505050949350505050565b606060008273ffffffffffffffffffffffffffffffffffffffff1660001b905060006040518060400160405280601081526020017f303132333435363738396162636465660000000000000000000000000000000081525090506000602a67ffffffffffffffff8111156107ac576107ab610bcf565b5b6040519080825280601f01601f1916602001820160405280156107de5781602001600182028036833780820191505090505b5090507f300000000000000000000000000000000000000000000000000000000000000081600081518110610816576108156117d9565b5b60200101907effffffffffffffffffffffffffffffffffffffffffffffffffffffffffffff1916908160001a9053507f78000000000000000000000000000000000000000000000000000000000000008160018151811061087a576108796117d9565b5b60200101907effffffffffffffffffffffffffffffffffffffffffffffffffffffffffffff1916908160001a90535060005b6014811015610a345782600485600c846108c69190611171565b602081106108d7576108d66117d9565b5b1a60f81b7effffffffffffffffffffffffffffffffffffffffffffffffffffffffffffff1916901c60f81c60ff1681518110610916576109156117d9565b5b602001015160f81c60f81b8260028361092f919061112f565b600261093b9190611171565b8151811061094c5761094b6117d9565b5b60200101907effffffffffffffffffffffffffffffffffffffffffffffffffffffffffffff1916908160001a90535082600f60f81b85600c8461098f9190611171565b602081106109a05761099f6117d9565b5b1a60f81b1660f81c60ff16815181106109bc576109bb6117d9565b5b602001015160f81c60f81b826002836109d5919061112f565b60036109e19190611171565b815181106109f2576109f16117d9565b5b60200101907effffffffffffffffffffffffffffffffffffffffffffffffffffffffffffff1916908160001a9053508080610a2c90611808565b9150506108ac565b50809350505050919050565b606060008203610a87576040518060400160405280600181526020017f30000000000000000000000000000000000000000000000000000000000000008152509050610b9b565b600082905060005b60008214610ab9578080610aa290611808565b915050600a82610ab2919061187f565b9150610a8f565b60008167ffffffffffffffff811115610ad557610ad4610bcf565b5b6040519080825280601f01601f191660200182016040528015610b075781602001600182028036833780820191505090505b5090505b60008514610b9457600182610b2091906116a3565b9150600a85610b2f91906118b0565b6030610b3b9190611171565b60f81b818381518110610b5157610b506117d9565b5b60200101907effffffffffffffffffffffffffffffffffffffffffffffffffffffffffffff1916908160001a905350600a85610b8d919061187f565b9450610b0b565b8093505050505b919050565b6000604051905090565b600080fd5b600080fd5b600080fd5b600080fd5b6000601f19601f8301169050919050565b7f4e487b7100000000000000000000000000000000000000000000000000000000600052604160045260246000fd5b610c0782610bbe565b810181811067ffffffffffffffff82111715610c2657610c25610bcf565b5b80604052505050565b6000610c39610ba0565b9050610c458282610bfe565b919050565b600067ffffffffffffffff821115610c6557610c64610bcf565b5b610c6e82610bbe565b9050602081019050919050565b82818337600083830152505050565b6000610c9d610c9884610c4a565b610c2f565b905082815260208101848484011115610cb957610cb8610bb9565b5b610cc4848285610c7b565b509392505050565b600082601f830112610ce157610ce0610bb4565b5b8135610cf1848260208601610c8a565b91505092915050565b600060208284031215610d1057610d0f610baa565b5b600082013567ffffffffffffffff811115610d2e57610d2d610baf565b5b610d3a84828501610ccc565b91505092915050565b600081519050919050565b600082825260208201905092915050565b60005b83811015610d7d578082015181840152602081019050610d62565b60008484015250505050565b6000610d9482610d43565b610d9e8185610d4e565b9350610dae818560208601610d5f565b610db781610bbe565b840191505092915050565b60006020820190508181036000830152610ddc8184610d89565b905092915050565b6000819050919050565b610df781610de4565b8114610e0257600080fd5b50565b600081359050610e1481610dee565b92915050565b60008060008060808587031215610e3457610e33610baa565b5b600085013567ffffffffffffffff811115610e5257610e51610baf565b5b610e5e87828801610ccc565b9450506020610e6f87828801610e05565b9350506040610e8087828801610e05565b925050606085013567ffffffffffffffff811115610ea157610ea0610baf565b5b610ead87828801610ccc565b91505092959194509250565b610ec281610de4565b82525050565b6000602082019050610edd6000830184610eb9565b92915050565b60008115159050919050565b610ef881610ee3565b82525050565b6000602082019050610f136000830184610eef565b92915050565b600073ffffffffffffffffffffffffffffffffffffffff82169050919050565b6000610f4482610f19565b9050919050565b610f5481610f39565b82525050565b6000602082019050610f6f6000830184610f4b565b92915050565b600060208284031215610f8b57610f8a610baa565b5b6000610f9984828501610e05565b91505092915050565b7f4e487b7100000000000000000000000000000000000000000000000000000000600052602260045260246000fd5b60006002820490506001821680610fe957607f821691505b602082108103610ffc57610ffb610fa2565b5b50919050565b7f596f7572206d65737361676520697320626967676572207468616e207468652060008201527f3130302062797465206c656e677468206c696d69742100000000000000000000602082015250565b600061105e603683610d4e565b915061106982611002565b604082019050919050565b6000602082019050818103600083015261108d81611051565b9050919050565b7f54696d657374616d70206973206e6f742061636365707461626c652e00000000600082015250565b60006110ca601c83610d4e565b91506110d582611094565b602082019050919050565b600060208201905081810360008301526110f9816110bd565b9050919050565b7f4e487b7100000000000000000000000000000000000000000000000000000000600052601160045260246000fd5b600061113a82610de4565b915061114583610de4565b925082820261115381610de4565b9150828204841483151761116a57611169611100565b5b5092915050565b600061117c82610de4565b915061118783610de4565b925082820190508082111561119f5761119e611100565b5b92915050565b7f5468652076616c75652073656e7420646f6573206e6f7420657175616c20746860008201527f652062797465206c656e677468206f6620746865206d65737361676520706c7560208201527f7320796f7572207469702e000000000000000000000000000000000000000000604082015250565b6000611227604b83610d4e565b9150611232826111a5565b606082019050919050565b600060208201905081810360008301526112568161121a565b9050919050565b60006060820190506112726000830186610f4b565b61127f6020830185610f4b565b61128c6040830184610eb9565b949350505050565b61129d81610ee3565b81146112a857600080fd5b50565b6000815190506112ba81611294565b92915050565b6000602082840312156112d6576112d5610baa565b5b60006112e4848285016112ab565b91505092915050565b7f436f756c64206e6f74207472616e73666572207061796d656e742066726f6d2060008201527f73656e64657220746f207468697320636f6e74726163742e0000000000000000602082015250565b6000611349603883610d4e565b9150611354826112ed565b604082019050919050565b600060208201905081810360008301526113788161133c565b9050919050565b600081905092915050565b600061139582610d43565b61139f818561137f565b93506113af818560208601610d5f565b80840191505092915050565b60006113c7828461138a565b915081905092915050565b60008190508160005260206000209050919050565b60006020601f8301049050919050565b600082821b905092915050565b6000600883026114347fffffffffffffffffffffffffffffffffffffffffffffffffffffffffffffffff826113f7565b61143e86836113f7565b95508019841693508086168417925050509392505050565b6000819050919050565b600061147b61147661147184610de4565b611456565b610de4565b9050919050565b6000819050919050565b61149583611460565b6114a96114a182611482565b848454611404565b825550505050565b600090565b6114be6114b1565b6114c981848461148c565b505050565b5b818110156114ed576114e26000826114b6565b6001810190506114cf565b5050565b601f82111561153257611503816113d2565b61150c846113e7565b8101602085101561151b578190505b61152f611527856113e7565b8301826114ce565b50505b505050565b600082821c905092915050565b600061155560001984600802611537565b1980831691505092915050565b600061156e8383611544565b9150826002028217905092915050565b61158782610d43565b67ffffffffffffffff8111156115a05761159f610bcf565b5b6115aa8254610fd1565b6115b58282856114f1565b600060209050601f8311600181146115e857600084156115d6578287015190505b6115e08582611562565b865550611648565b601f1984166115f6866113d2565b60005b8281101561161e578489015182556001820191506020850194506020810190506115f9565b8683101561163b5784890151611637601f891682611544565b8355505b6001600288020188555050505b505050505050565b6000608082019050818103600083015261166a8187610d89565b90506116796020830186610eb9565b6116866040830185610eb9565b81810360608301526116988184610d89565b905095945050505050565b60006116ae82610de4565b91506116b983610de4565b92508282039050818111156116d1576116d0611100565b5b92915050565b600081546116e481610fd1565b6116ee818661137f565b94506001821660008114611709576001811461171e57611751565b60ff1983168652811515820286019350611751565b611727856113d2565b60005b838110156117495781548189015260018201915060208101905061172a565b838801955050505b50505092915050565b6000611766828c61138a565b9150611772828b6116d7565b915061177e828a61138a565b915061178a82896116d7565b9150611796828861138a565b91506117a282876116d7565b91506117ae828661138a565b91506117ba82856116d7565b91506117c6828461138a565b91508190509a9950505050505050505050565b7f4e487b7100000000000000000000000000000000000000000000000000000000600052603260045260246000fd5b600061181382610de4565b91507fffffffffffffffffffffffffffffffffffffffffffffffffffffffffffffffff820361184557611844611100565b5b600182019050919050565b7f4e487b7100000000000000000000000000000000000000000000000000000000600052601260045260246000fd5b600061188a82610de4565b915061189583610de4565b9250826118a5576118a4611850565b5b828204905092915050565b60006118bb82610de4565b91506118c683610de4565b9250826118d6576118d5611850565b5b82820690509291505056fea264697066735822122054db0729becb23a60c6aff89b79fa06df4a1b580e921badb67ff99145d12a78b64736f6c63430008150033",
  "immutableReferences": {},
  "source": "// SPDX-License-Identifier: MIT\npragma solidity >=0.4.22 <0.9.0;\n\nimport \"@openzeppelin/contracts/token/ERC20/ERC20.sol\";\n\ncontract MessageBoard {\n    // Contracts\n    address public semcoinAddress; // The contract address of Semcoin\n\n    // Retrieval\n    // uint public messageLimit = 10;\n\n    // Creation\n    // uuid, date, sender address, tip, message\n    uint public messageByteLimit = 100;\n    uint public tokenCostPerByte = 1;\n    string private messageSpacer = \"||\";\n\n    event MessageCreated(\n        string uuid,\n        uint256 date,\n        address indexed account,\n        uint256 tip,\n        string message\n    );\n\n    constructor(address _semcoinAddress) {\n        owner = msg.sender;\n        semcoinAddress = _semcoinAddress;\n    }\n\n    // Ownership\n    address owner;\n\n    function isOwner() public view returns (bool) {\n        return msg.sender == owner;\n    }\n\n    // Message Board\n    mapping(string => string) public mappedMessages;\n\n    function getMessageByUuid(\n        string memory uuid\n    ) public view returns (string memory) {\n        return mappedMessages[uuid];\n    }\n\n    // function getMessages(\n    //     uint start,\n    //     uint quantity\n    // ) public view returns (string[] memory) {\n    //     require(\n    //         quantity <= messageLimit,\n    //         \"Trying to fetch too many messages at once.\"\n    //     );\n    //     string[] memory fetchMessages = new string[](quantity);\n    //     for (uint i = 0; i < quantity; i++) {\n    //         fetchMessages[i] = messageStrings[start + i];\n    //     }\n    //     return fetchMessages;\n    // }\n\n    // Creating Messages\n    function createMessage(\n        string memory uuid,\n        uint256 date,\n        uint256 tip,\n        string memory message // the original message,\n    ) public payable {\n        // Make sure they are within the limits\n        uint messageByteLength = byteLengthOfString(message);\n        require(\n            messageByteLength <= messageByteLimit,\n            \"Your message is bigger than the 100 byte length limit!\"\n        );\n\n        require(isWithinOneHour(date), \"Timestamp is not acceptable.\");\n\n        // Make sure they have paid enough tokens\n        // message length + tip amount\n        uint256 totalCost = (messageByteLength * tokenCostPerByte) + tip;\n\n        require(\n            msg.value == totalCost,\n            \"The value sent does not equal the byte length of the message plus your tip.\"\n        );\n\n        require(\n            IERC20(semcoinAddress).transferFrom(\n                msg.sender,\n                address(this),\n                totalCost\n            ),\n            \"Could not transfer payment from sender to this contract.\"\n        );\n\n        mappedMessages[uuid] = concatenateInputs(uuid, date, tip, message);\n        emit MessageCreated(uuid, date, msg.sender, tip, message);\n    }\n\n    function concatenateInputs(\n        string memory uuid,\n        uint256 date,\n        uint256 tip,\n        string memory message\n    ) internal view returns (string memory) {\n        // Convert bytes32 to string\n        string memory addressStr = addressToString(msg.sender);\n        string memory dateStr = uintToString(date);\n        // Convert uint256 to string\n        string memory tipStr = uintToString(tip);\n\n        // Concatenate the strings\n        return\n            string(\n                abi.encodePacked(\n                    uuid,\n                    messageSpacer,\n                    dateStr,\n                    messageSpacer,\n                    addressStr,\n                    messageSpacer,\n                    tipStr,\n                    messageSpacer,\n                    message\n                )\n            );\n    }\n\n    function uintToString(uint256 _uint) internal pure returns (string memory) {\n        if (_uint == 0) {\n            return \"0\";\n        }\n        uint256 temp = _uint;\n        uint256 digits;\n        while (temp != 0) {\n            digits++;\n            temp /= 10;\n        }\n        bytes memory buffer = new bytes(digits);\n        while (_uint != 0) {\n            digits -= 1;\n            buffer[digits] = bytes1(uint8(48 + (_uint % 10)));\n            _uint /= 10;\n        }\n        return string(buffer);\n    }\n\n    function addressToString(\n        address _addr\n    ) internal pure returns (string memory) {\n        bytes32 value = bytes32(uint256(uint160(_addr)));\n        bytes memory alphabet = \"0123456789abcdef\";\n        bytes memory str = new bytes(42); // Length of an Ethereum address string\n\n        str[0] = \"0\";\n        str[1] = \"x\";\n\n        for (uint256 i = 0; i < 20; i++) {\n            str[2 + i * 2] = alphabet[uint8(value[i + 12] >> 4)];\n            str[3 + i * 2] = alphabet[uint8(value[i + 12] & 0x0f)];\n        }\n\n        return string(str);\n    }\n\n    uint constant ONE_HOUR = 60 * 60; // 3600 seconds\n\n    function isWithinOneHour(uint timestamp) public view returns (bool) {\n        uint currentTime = block.timestamp;\n\n        // Check if the given timestamp is within one hour of the current time\n        if (timestamp >= currentTime && timestamp - currentTime <= ONE_HOUR) {\n            return true; // The given timestamp is within the next hour\n        } else if (\n            timestamp < currentTime && currentTime - timestamp <= ONE_HOUR\n        ) {\n            return true; // The given timestamp was within the last hour\n        }\n        return false; // The given timestamp is not within one hour of the current time\n    }\n\n    function byteLengthOfString(string memory str) private pure returns (uint) {\n        return bytes(str).length;\n    }\n}\n",
  "sourcePath": "C:\\Users\\Sean\\Desktop\\Blockchain\\MessageBoard\\contracts\\MessageBoard.sol",
  "compiler": {
    "name": "solc",
    "version": "0.8.21+commit.d9974bed.Emscripten.clang"
  },
  "schemaVersion": "3.4.16",
  "updatedAt": "2023-12-12T23:32:31.089Z",
  "networkType": "ethereum",
  "devdoc": {
    "kind": "dev",
    "methods": {},
    "version": 1
  },
  "userdoc": {
    "kind": "user",
    "methods": {},
    "version": 1
  }
}